:020000040800F2
:10000000E0260020B51D00087D1E00087F1E0008A8
:10001000831E0008871E00088B1E000800000000D9
:100020000000000000000000000000008F1E00081B
:10003000911E000800000000931E0008951E000895
:10004000CF1D0008CF1D0008CF1D0008CF1D0008E0
:10005000CF1D0008CF1D0008CF1D0008CF1D0008D0
:10006000CF1D0008CF1D0008CF1D0008CF1D0008C0
:10007000CF1D0008CF1D0008CF1D0008CF1D0008B0
:10008000CF1D0008CF1D0008CF1D0008CF1D0008A0
:10009000CF1D0008CF1D0008CF1D0008CF1D000890
:1000A000CF1D0008BF280008CF1D0008CF1D000885
:1000B000EB2800081729000843290008CF1D000875
:1000C000CF1D0008CF1D0008CF1D0008CF1D000860
:1000D000CF1D0008633200086F3200087B32000831
:1000E000CF1D0008CF1D0008CF1D0008CF1D000840
:1000F0001F2A0008CF1D0008CF1D0008CF1D0008D3
:10010000CF1D0008CF1D00086F290008CF1D000873
:10011000CF1D0008CF1D00089B290008F329000807
:10012000CF1D0008CF1D0008CF1D0008CF1D0008FF
:1001300000F002F800F03EF80AA090E8000C8244BB
:100140008344AAF10107DA4501D100F033F8AFF298
:10015000090EBAE80F0013F0010F18BFFB1A43F0A5
:1001600001031847B83B0000D83B0000103A24BFF9
:1001700078C878C1FAD8520724BF30C830C144BF0C
:1001800004680C607047000000230024002500264E
:10019000103A28BF78C1FBD8520728BF30C148BFEA
:1001A0000B6070471FB59DE8030003F029FB1FBDDE
:1001B00010B510BD03F080FB1146FFF7F3FF01F00F
:1001C00019FE03F09EFB03B4FFF7F2FF03BC03F03C
:1001D000CFFB00000CB50020019000906C48006837
:1001E00040F480306A49086000BF6948006800F444
:1001F000003000900198401C0190009818B90198B7
:10020000B0F5A06FF1D16248006800F4003010B181
:100210000120009001E0002000900098012843D1C7
:100220005C48006840F010005A49086008460068C1
:1002300020F0030008600846006840F002000860F3
:10024000534840685249486008464068486008463C
:10025000406840F4806048600846406820F47C10A4
:1002600048600846406840F4E81048600846006866
:1002700040F08070086000BF4548006800F00070E2
:100280000028F9D04248406820F003004049486007
:100290000846406840F00200486000BF3C484068A3
:1002A00000F00C000828F9D10CBD10B5FFF792FF43
:1002B00010BD10B53648006840F0010034490860B0
:1002C000084640683449084031494860084600689B
:1002D000324908402E4908600846006820F4802012
:1002E00008600846406820F4FE0048604FF41F0094
:1002F0008860FFF7DAFF4FF000602949086010BD01
:1003000010B5002100200022214B5B6803F00C0196
:1003100021B1042906D0082928D107E0214B224C1D
:10032000236027E01F4B204C236023E0184B5B68C1
:1003300003F47010164B5B6803F48032022303EB66
:10034000904022B9194B4343174C23600DE0104BEA
:100350005B6803F4003323B1144B4343124C236016
:1003600003E0104B4343104C236003E00D4B0E4C55
:10037000236000BF00BF064B5B68C3F303130C4C44
:10038000E15C094B1B68CB40074C236010BD0000AB
:1003900000100240002002400000FFF8FFFFF6FEC0
:1003A00008ED00E000127A000000002000093D0086
:1003B0000400002031490143314A1160704770B593
:1003C000002100230F22C47804B32D4C246804F4C8
:1003D000E064C4F5E064210AC1F10403CA40447832
:1003E00004FA03F18478144021430901254C06786E
:1003F000A155047804F01F050124AC4005786D1167
:10040000AD0005F1E025C5F8004109E0047804F0ED
:100410001F050124AC401C4D0678761145F8264096
:1004200070BD1A4A0A400243154B1B1F1A607047E1
:1004300039B1134A121D12680243114B1B1D1A6079
:1004400006E00F4A121D126882430D4B1B1D1A60F5
:100450007047042808D14FF0E021096941F00401F8
:100460004FF0E022116107E04FF0E021096921F02F
:1004700004014FF0E0221161704700000000FA050E
:100480000CED00E000E400E080E100E080FFFF1FF1
:1004900010B50446CC48844208D10121042000F064
:1004A0002DFB0021042000F029FB46E0C7488442D0
:1004B00008D10121082000F021FB0021082000F0D4
:1004C0001DFB3AE0C248844208D10121102000F00F
:1004D00015FB0021102000F011FB2EE0BD488442E6
:1004E00008D10121202000F009FB0021202000F08C
:1004F00005FB22E0B848844208D10121402000F0E9
:10050000FDFA0021402000F0F9FA16E0B3488442D9
:1005100008D10121802000F0F1FA0021802000F0B4
:10052000EDFA0AE0AE48844207D10121801500F0BF
:10053000E5FA0021A01500F0E1FA10BD10B5012187
:10054000084600F0DBFA0021012000F0D7FA10BDC8
:100550002DE9F0410246002500260020002300245A
:10056000002791F803C00CF00F0591F803C00CF0C0
:10057000100CBCF1000F03D091F802C04CEA050545
:1005800091F800C0BCF1000F31D0146800202BE0BE
:100590004FF0010C0CFA00F3B1F800C00CEA0306AE
:1005A0009E4220D183004FF00F0C0CFA03F7BC439E
:1005B00005FA03FC4CEA040491F803C0BCF1280FCF
:1005C00006D14FF0010C0CFA00FCC2F814C00AE08E
:1005D00091F803C0BCF1480F05D14FF0010C0CFAA3
:1005E00000FCC2F810C0401C0828D1D31460B1F838
:1005F00000C0BCF1FF0F34DD546800202EE000F194
:10060000080C4FF0010808FA0CF3B1F800C00CEA2E
:1006100003069E4221D183004FF00F0C0CFA03F722
:10062000BC4305FA03FC4CEA040491F803C0BCF196
:10063000280F05D100F1080C08FA0CF8C2F8148054
:1006400091F803C0BCF1480F07D100F1080C4FF03E
:10065000010808FA0CF8C2F81080401C0828CED314
:100660005460BDE8F0814FF6FF7101800221817076
:100670000421C17070470246002093680B400BB103
:10068000012000E0002070470146886880B2704772
:1006900002460020D3680B400BB1012000E000208F
:1006A00070470146C86880B2704701617047416178
:1006B00070470AB1016100E041617047C160704755
:1006C0004FF480320A43826181618261826982696A
:1006D000704702460020434B18684FF6807318405D
:1006E00040EA021008433F4B186070473E49C8611A
:1006F0007047F0B50A46002300240021002500F0D1
:100700000046B6F1004F02D1364EF16901E0354E98
:100710007168C0F3034583B200F44016B6F5401F7C
:1007200008D121F070612F4E766826F070662D4F4B
:100730007E6012E000F48016B6F5801F06D1032615
:1007400006FA05F4A14341F0706106E0460D36015A
:1007500003FA06F6B14341F0706122B1460D36014D
:1007600003FA06F6314300F00046B6F1004F02D11D
:100770001C4EF16101E01B4E7160F0BD30B50022EE
:100780008B071C0F0F2303FA04F2164B08338C104F
:1007900053F824309343134C08348D1044F825301B
:1007A00023468C1053F824308C07240F00FA04F4ED
:1007B00023430C4C08348D1044F8253030BD0A49D1
:1007C000DC3108607047000000080140000C014067
:1007D000001001400014014000180140001C0140BD
:1007E000002001400000014000002042DF48006876
:1007F00040F00100DD49086008464068DC490840D7
:10080000DA49486008460068DA490840D749086074
:100810000846006820F4802008600846406820F4FC
:10082000FE0048604FF41F0088607047CF49096898
:1008300021F48031CD4A11601146096821F48021EC
:100840001160B0F5803F03D0B0F5802F0ED106E0E7
:10085000C649096841F48031C44A116007E0C349C0
:10086000096841F4A021C14A116000E000BF00BF47
:10087000704710B501460022002300204A11012ACA
:1008800002D1BA4C236806E0022A02D1B74C236A8F
:1008900001E0B64C636A01F01F02012494401C4041
:1008A0000CB1012000E0002010BD38B50020009000
:1008B0000024002500BF3120FFF7DBFF054600982C
:1008C000401C00900098B0F5A06F01D0002DF2D030
:1008D0003120FFF7CEFF08B1012400E000242046BC
:1008E00038BD01460020A14A106820F0F80040EA17
:1008F000C10010607047A0490860704702460020A0
:100900009A4B586820F47C1042EA01031843974B35
:100910005860704798490866704701460020934A1E
:10092000506820F003000843506070478F484068CB
:1009300000F00C007047014600208C4A506820F0FF
:10094000F00008435060704701460020874A506815
:1009500020F4E06008435060704701460020834A5D
:10096000506820F4605040EAC1005060704729B1DF
:100970007E4A527A02437D4B5A7204E07B4A527A95
:1009800082437A4B5A7270477B49D831086070476E
:1009900001460020754A506820F4404008435060EA
:1009A00070470021714A20321170704A82F820107D
:1009B000012802D004280AD104E001216B4A203228
:1009C000117005E00521694A2032117000E000BF76
:1009D00000BF70476949086070476449096A01436C
:1009E000624A11627047654944390860704730B502
:1009F00000210022002400235C4D6D6805F00C01ED
:100A000021B1042905D0082923D105E05C4D0560FA
:100A100022E05B4D05601FE0544D6D6805F47012D7
:100A2000524D6D6805F48034022505EB92421CB9E5
:100A3000544D554305600BE04C4D6D6805F4003591
:100A40001DB1504D5543056002E04D4D55430560C5
:100A500002E04B4D056000BF00BF444D6D6805F0DE
:100A6000F0010909484D6B5C0568DD4045603F4D6C
:100A70006D6805F4E061090A434D6B5C4568DD4033
:100A800085603A4D6D6805F46051C90A3E4D6B5C56
:100A90004568DD40C560354D6D6805F44041890B02
:100AA0003A4D6B5CC568B5FBF3F5056130BD29B106
:100AB0002E4A526902432D4B5A6104E02B4A526977
:100AC00082432A4B5A61704729B1284A92690243EE
:100AD000264B9A6104E0254A92698243234B9A612E
:100AE000704729B1214AD2690243204BDA6104E000
:100AF0001E4AD26982431D4BDA61704729B11B4AF5
:100B0000D2680243194BDA6004E0184AD268824383
:100B1000164BDA60704729B1144A12690243134B2D
:100B20001A6104E0114A12698243104B1A6170473E
:100B300012494039086070470F49C86470470B4933
:100B4000C87170470948406A40F0807007494862A0
:100B5000704701460020054A92680A400AB1012008
:100B600000E0002070470149887270470010024081
:100B70000000FFF8FFFFF6FE000042428004424200
:100B800000127A0000093D0014000020240000201B
:100B900010B50446FE48844208D10121C014FFF775
:100BA000ADFF0021E014FFF7A9FFC4E0B4F1804FCE
:100BB00008D101210846FFF7AEFF00210120FFF711
:100BC000AAFFB8E0F348844208D101210220FFF7D0
:100BD000A2FF00210220FFF79EFFACE0EE48844216
:100BE00008D101210420FFF796FF00210420FFF720
:100BF00092FFA0E0E948844208D101210820FFF7D4
:100C00008AFF00210820FFF786FF94E0E448844231
:100C100008D101211020FFF77EFF00211020FFF7EF
:100C20007AFF88E0DF48844208D101212020FFF7C5
:100C300072FF00212020FFF76EFF7CE0DA4884423B
:100C400008D101214014FFF759FF00216014FFF77C
:100C500055FF70E0D548844209D10121C804FFF74F
:100C60004DFF00214FF40020FFF748FF63E0D0481C
:100C7000844209D101210805FFF740FF00214FF40C
:100C80008010FFF73BFF56E0CA48844209D101219A
:100C90004805FFF733FF00214FF40010FFF72EFF48
:100CA00049E0C548844208D101214020FFF733FFC5
:100CB00000214020FFF72FFF3DE0C048844208D1CB
:100CC00001218020FFF727FF00218020FFF723FF6D
:100CD00031E0BB48844208D101218015FFF71BFF9A
:100CE0000021A015FFF717FF25E0B648844209D17F
:100CF00001210804FFF702FF00214FF48030FFF7C5
:100D0000FDFE18E0B048844209D101214804FFF7F4
:100D1000F5FE00214FF40030FFF7F0FE0BE0AB488A
:100D2000844208D101218804FFF7E8FE00214FF436
:100D30008020FFF7E3FE10BD00220288944B98420A
:100D40000ED0994B98420BD0B0F1804F08D0914B08
:100D5000984205D0904B984202D0904B984204D1D3
:100D60004FF68F731A404B881A438D4B984207D029
:100D70008C4B984204D04FF6FF431A40CB881A435D
:100D800002808B8883850B880385814B98420BD02A
:100D9000854B984208D08B4B984205D08A4B98429D
:100DA00002D08A4B984201D10B7A038601238382B9
:100DB000704770B5002400220023058C4FF6FE76A4
:100DC00035400584028C8388048B4FF68F752C4048
:100DD000B51E2C400D882C43751E2A400D892A43D0
:100DE0004D882A436A4DA8420BD06F4DA84208D0C7
:100DF000744DA84205D0744DA84202D0734DA8424C
:100E000013D14FF6F7752A404D892A434FF6FB75EB
:100E10002A408D882A434FF6FF652B404FF6FF5539
:100E20002B408D892B43CD892B4383800483CD8830
:100E30008586028470BD70B5002400220023058CD5
:100E40004FF6EF7635400584028C8388048B48F694
:100E5000FF752C404FF6FF452C400D884FF6FF766E
:100E600006EA05252C434FF6DF752A400D8906EA70
:100E700005152A434D8806EA05152A43444DA84224
:100E800002D0494DA8421DD14FF67F752A404D89A9
:100E90004FF6FF7606EA05152A434FF6BF752A403E
:100EA0008D8806EA05152A434FF6FF352B404FF291
:100EB000FF752B408D8906EA85052B43CD8906EA0F
:100EC00085052B4383800483CD880587028470BD0C
:100ED00070B5002400220023058C4FF6FF663540D4
:100EE0000584028C8388848B4FF68F752C404FF6D7
:100EF000FC752C400D882C434FF6FF552A400D8978
:100F00004FF6FF7606EA05252A434D8806EA0525B1
:100F10002A431F4DA84202D0234DA8421DD14FF2B3
:100F2000FF752A404D894FF6FF7606EA05252A43CC
:100F30004FF6FF352A408D8806EA05252A434EF6EE
:100F4000FF752B404DF6FF752B408D8906EA051580
:100F50002B43CD8906EA05152B4383808483CD88F6
:100F60008587028470BD70B5002200230024058CA3
:100F70004EF6FF7635400584038C8488828B48F6D4
:100F8000FF752A404FF6FF452A400D8820E00000FB
:100F9000002C01400004004000080040000C00400C
:100FA000001000400014004000340140004C01409B
:100FB000005001400054014000180040001C004057
:100FC0000020004000400140004401400048014032
:100FD0004FF6FF7606EA05252A434DF6FF752B40AE
:100FE0000D8906EA05352B434D8806EA05352B4366
:100FF000FA4DA84202D0FA4DA84208D14BF6FF752F
:101000002C408D894FF6FF7606EA85152C438480A7
:101010008283CD88A0F84050038470BD828B4FF24C
:10102000FF331A408283828B4FF6FF7303EA01235A
:101030001A4382837047F0B50C4615460022002102
:101040000026078C4EF6FF7C07EA0C070784828B8C
:10105000018C4FF6FF7707EA043640F6FF473A4027
:101060004FF6FF7707EA05273A434FF6FF7707EA7F
:1010700003373A43D94FB8420ED0D94FB8420BD0BC
:10108000B0F1804F08D0D74FB84205D0D64FB84204
:1010900002D0D64FB84206D14DF6FF77394046F41C
:1010A0008057394305E047F6FF57394044F48057ED
:1010B000394382830184F0BD828B4FF6F3731A406B
:1010C0008283828B0A4382837047F0B50C461546B3
:1010D000002200210026078C4FF6FF6C07EA0C0760
:1010E0000784828B018C4FF6FF7707EA04264FF6C0
:1010F0000C773A404FF6FF7707EA03172F433A433E
:10110000B64FB8420ED0B64FB8420BD0B0F1804FB8
:1011100008D0B44FB84205D0B34FB84202D0B34F55
:10112000B84206D14FF6FF57394046F4807739432D
:1011300005E04FF2FF57394044F48077394382830A
:101140000184F0BD028B4FF2FF331A400283028B01
:101150004FF6FF7303EA01231A4302837047F0B589
:101160000C461546002200210026078C4FF6EF7C26
:1011700007EA0C070784028B018C4FF6FF7707EA1A
:10118000041640F6FF473A404FF6FF7707EA033769
:101190003A434FF6FF7707EA05273A438F4FB842A5
:1011A0000ED08F4FB8420BD0B0F1804F08D08D4F8A
:1011B000B84205D08C4FB84202D08C4FB84206D10D
:1011C0004FF6DF77394046F01007394305E04FF618
:1011D0005F77394044F01007394302830184F0BD42
:1011E000028B4FF6F3731A400283028B0A43028389
:1011F0007047F0B50C46154600220021068C4FF6CC
:10120000FE773E400684028B018C4FF60C7632400E
:101210007E1C06EA03162E433243704EB0420ED0B7
:101220006F4EB0420BD0B0F1804F08D06D4EB0423F
:1012300005D06D4EB04202D06C4EB04206D14FF692
:10124000FD76314044F00106314305E04FF6F57676
:10125000314044F00106314302830184F0BD70B592
:1012600005460C465D4885420ED05D4885420BD050
:10127000B5F1804F08D05B48854205D05A48854279
:1012800002D05A48854200D100E000BF208850B902
:101290002389A28861882846FFF7ABFFE1882846AA
:1012A000FFF79EFF25E0208804280AD12389A28821
:1012B00061882846FFF753FFE1882846FFF742FF81
:1012C00017E0208808280AD12389A2886188284647
:1012D000FFF7FBFEE1882846FFF7EEFE09E02389D1
:1012E000A28861882846FFF7A6FEE1882846FFF716
:1012F00095FE70BD2DE9F04105460C4600260127FC
:10130000608808B9022600E00026A088012801D1E3
:10131000022700E001272088A0B92389A2886188DC
:101320002846FFF766FFE1882846FFF759FF238923
:101330003A4631462846FFF712FFE1882846FFF774
:1013400001FF13E02389A28861882846FFF707FF81
:10135000E1882846FFF7F6FE23893A4631462846BB
:10136000FFF747FFE1882846FFF73AFFBDE8F08125
:101370000A884B881A438B881A43CB881A430B89F7
:101380001A434B891A438B891A43A0F844207047AB
:101390004FF6FF71818000210180C1804180017280
:1013A00070470021018041808180C180018141819D
:1013B0008181C181704700210180418001218180AC
:1013C0000021C1800181704700210180418081801E
:1013D000C18001814181818170470000002C014062
:1013E000003401400004004000080040000C0040B0
:1013F00021B1028842F00102028004E002884FF627
:10140000FE731A400280704731B1B0F8442042F4B4
:101410000042A0F8442005E0B0F84420C2F30E02D8
:10142000A0F8442070471AB183890B43838102E0FE
:1014300083898B43838170478182704741EA02032D
:10144000A0F8483070471AB183890B43838102E0CA
:1014500083898B438381704701894FF6F87211406D
:10146000018170470A46002101894FF68F731940A8
:1014700011430181704730B504460D462946204688
:10148000FFF7F0FF208940F00700208130BD2DE9F3
:10149000F04104460D4616461F46602D06D13B46D8
:1014A000012231462046FFF75AFE05E03B46012265
:1014B00031462046FFF79DFE29462046FFF7D2FF22
:1014C000208940F007002081BDE8F08130B50C464E
:1014D00000210189C9B24FF6FF7505EA03251543BE
:1014E00025432943018130BD2DE9F04105460E46D3
:1014F00017469846002443463A4631462846FFF7A9
:10150000E5FF2C894FF6F870044044F007044FF6CD
:101510008F70044044F070042C81BDE8F081F0B578
:1015200004460D4616461F463B463246294620468F
:10153000FFF7CCFF208940F480402081F0BD018579
:10154000828270470A46002101884FF68F73194046
:10155000114301807047F0B50C4615461E46002128
:10156000002200230189028B038C4FF6F877394063
:1015700021434FF6FC473A4040F201173A434FF6F9
:10158000DD773B404FF6FF7707EA06172F433B43D3
:10159000018102830384F0BD0A460021018B4FF6CE
:1015A0008F7319401143018370470A460021018B54
:1015B00048F6FF7319404FF6FF7303EA02231943FD
:1015C000018370470A460021818B4FF68F731940C3
:1015D0001143818370470A460021818B48F6FF73CF
:1015E00019404FF6FF7303EA0223194381837047C2
:1015F00021B1028842F08002028004E002884FF6A6
:101600007F731A400280704721B1828842F0040241
:10161000828004E082884FF6FB731A408280704714
:1016200021B1828842F00802828004E082884FF66D
:10163000F7731A408280704721B1828842F001021C
:10164000828004E082884FF6FE731A4082807047E1
:101650000A460021018B4FF6F773194011430183AD
:1016600070470A460021018B4FF2FF7319404FF675
:10167000FF7303EA02231943018370470A460021DE
:10168000818B4FF6F77319401143818370470A46E7
:101690000021818B4FF2FF7319404FF6FF7303EA6D
:1016A00002231943818370470A460021018B4FF6BC
:1016B000FB7319401143018370470A460021018BD7
:1016C0004FF6FF3319404FF6FF7303EA0223194325
:1016D000018370470A460021818B4FF6FB73194046
:1016E0001143818370470A460021818B4FF6FF33F7
:1016F00019404FF6FF7303EA0223194381837047B1
:101700000A460021018B4FF67F7319401143018374
:1017100070470A460021018BC1F30E014FF6FF739B
:1017200003EA02231943018370470A460021818B93
:101730004FF67F7319401143818370470A46002199
:10174000818BC1F30E014FF6FF7303EA02231943A5
:10175000818370470A460021018C4FF6FD731940C2
:101760001143018470470A460021018C4FF6F7733C
:1017700019401143018470470A460021018C4FF63D
:10178000DF7319404FF6FF7303EA02131943018414
:1017900070470A460021018C4FF67F7319404FF6BF
:1017A000FF7303EA02131943018470470A460021BC
:1017B000018C4FF6FF5319404FF6FF7303EA0223E3
:1017C0001943018470470A460021018C4FF2FF73D0
:1017D00019404FF6FF7303EA02231943018470474F
:1017E0000A460021018C4DF6FF7319404FF6FF7336
:1017F00003EA023319430184704730B50023012402
:101800008C40A3B2048C9C430484048C02FA01F53E
:10181000ADB22C43048430BD30B5002304248C4089
:10182000A3B2048C9C430484048C02FA01F5ADB28B
:101830002C43048430BD70B50346002000241846B4
:10184000183001258D40ACB21D8CA5431D8409B113
:10185000082909D100EB6100056825F070050560D5
:101860000568154305600EE00D1FC5F34E052844BD
:10187000056825F4E045056005684FF6FF7606EA41
:1018800002263543056070BD21B1028842F0020294
:10189000028004E002884FF6FD731A400280704710
:1018A00021B1028842F00402028004E002884FF66F
:1018B000FB731A400280704721B1828842F0800297
:1018C000828004E082884FF67F731A4082807047DE
:1018D00002884FF6F7731A40028002880A4302809A
:1018E000704782884FF68F731A40828082880A433D
:1018F0008280704702894FF6F8731A40028102898C
:101900000A430281704702894FF67F731A400281B1
:1019100002890A430281704781847047818570473C
:10192000818670470187704781877047A0F8401013
:10193000704702884FF6FF431A40028002880A432C
:10194000028070470146888E70470146088F7047B5
:101950000146888F70470146B1F840007047014644
:10196000888C70470146088D704702460020138A14
:101970000B400BB1012000E000207047CA430282F7
:10198000704730B50246002000230024158A05EA7E
:101990000103958905EA010413B10CB1012000E0AF
:1019A000002030BDCA4302827047000010B50446D3
:1019B000FB48844209D101218803FFF79FF80021E9
:1019C0004FF48040FFF79AF832E0F648844209D19C
:1019D00001214804FFF79FF800214FF40030FFF782
:1019E0009AF825E0F048844209D101218804FFF7E4
:1019F00092F800214FF48020FFF78DF818E0EB48B3
:101A0000844209D10121C804FFF785F800214FF471
:101A10000020FFF780F80BE0E548844208D101215F
:101A20000805FFF778F800214FF48010FFF773F8EE
:101A300010BD2DE9F04786B005460E460024A246AB
:101A400000BFA1460027B08900B100BF2F462C8AF5
:101A50004CF6FF700440F08804432C82AC894EF6AB
:101A6000F3100440B0883189084371890843044366
:101A7000AC81AC8A4FF6FF400440B0890443AC828D
:101A800001A8FEF7B4FFC648874202D1DDF810A0D6
:101A900001E0DDF80CA0A88900F4004040B10AEB99
:101AA000CA0000EB0A1031684900B0FBF1F807E00A
:101AB0000AEBCA0000EB0A1031688900B0FBF1F8AC
:101AC0006420B8FBF0F004012009642101FB1089B7
:101AD000A88900F4004040B1322000EBC900B0FBFF
:101AE000F1F000F00700044308E0322000EB091099
:101AF0006421B0FBF1F000F00F0004432C8106B02C
:101B0000BDE8F0874FF41651016000218180C1804B
:101B100001810C21418100218181704710B502466D
:101B20000020108A4FF2FF0318400B884C88234393
:101B30008C882343CC8823431843108210BD002196
:101B4000018041808180C180704721B1828942F447
:101B50000052828104E082894DF6FF731A4082812F
:101B60007047F0B50346002400260025002040F60B
:101B70006A17B94200D100BF1846C1F3421401F000
:101B80001F06012707FA06F5012C01D10C3004E0ED
:101B9000022C01D1103000E014301AB107682F4335
:101BA000076002E00768AF430760F0BD1AB1838A9F
:101BB0000B43838202E0838A8B4383827047028ACD
:101BC0004FF6F0731A400282028A0A43028270477B
:101BD00082894FF2FF731A40828182890A4382818F
:101BE000704721B1828942F00202828104E0828939
:101BF0004FF6FD731A4082817047028A4FF6DF73F9
:101C00001A400282028A0A430282704721B1028A84
:101C100042F48042028204E0028A4BF6FF731A40CB
:101C200002827047C1F308028280704701468888AB
:101C3000C0F308007047818941F00101818170473C
:101C4000028BD2B20283028B42EA012202837047E6
:101C5000028B02F47F420283028B0A4302837047A5
:101C600021B1828A42F02002828204E0828A4FF609
:101C7000DF731A408282704721B1828A42F01002DB
:101C8000828204E0828A4FF6EF731A4082827047A4
:101C900021B1828A42F00802828204E0828A4FF6F1
:101CA000F7731A408282704721B1828942F4004260
:101CB000828103E08289C2F30E028281704721B1E2
:101CC000828A42F40062828204E0828A4FF2FF73C9
:101CD0001A4082827047828A4FF6FB731A408282D2
:101CE000828A0A438282704721B1828A42F00202CC
:101CF000828204E0828A4FF6FD731A408282704726
:101D000002460020B1F5007F00D100BF13880B40D0
:101D10000BB1012000E00020704701F40072B2F521
:101D2000007F00D100BFCA430280704770B50246F1
:101D3000002400230025002040F66A16B14200D19D
:101D400000BFC1F3421501F01F03012606FA03F399
:101D5000012D02D19689334006E0022D02D1168A68
:101D6000334001E0968A33400C12012606FA04F44F
:101D70001688344013B10CB1012000E0002070BD82
:101D800010B50022002340F66A14A14200D100BF22
:101D90000A1201249440A3B2DC43048010BD000069
:101DA000003801400044004000480040004C004022
:101DB000005000400948804709480047FEE7FEE719
:101DC000FEE7FEE7FEE7FEE7FEE7FEE7FEE7FEE7EB
:101DD00004480549054A064B70470000B302000855
:101DE00031010008E0200020E0260020E022002051
:101DF000E02200201CB500F0BFF81C214FF080400D
:101E000000F0DEFB044601F0EAFB184908600421FB
:101E1000174800F062F904460221154800F05DF908
:101E200005460121124800F058F9064608211048DD
:101E300000F053F9074600200E4923462A46CDE913
:101E400000103146384601F02BFA0B49086008466D
:101E500001680648006801F0D8FB4FF07E5200216F
:101E60000548006801F004FC00BFFEE728000020E0
:101E7000001001406666E63F2C000020704700BF5E
:101E8000FEE700BFFEE700BFFEE700BFFEE77047CA
:101E90007047704770470000364811E0416809B943
:101EA00000680DE00168496841B102688168926884
:101EB0001144816001680968016001E0006800BFA9
:101EC00001680029EAD1704710B50346294900246A
:101ED00007E0486810B18868984201D2096800E0BC
:101EE00001E00029F5D100BF09B9002010BD002094
:101EF0004860CA180868904208D00120506088687D
:101F0000C01A9060086810608B600A6001F11004CC
:101F10002046EBE770B5044604F11000002101EB08
:101F2000101104F00F0008B1012000E00020084467
:101F3000050100262846FFF7C7FF06462EB9FFF722
:101F4000ABFF2846FFF7C0FF0646304670BD10388D
:101F50000121416070471FB50121019100210091CD
:101F60004FF40051029103489DE81E0080E81E00D6
:101F70001FBD00008000002010B5FFF7ECFF10BD72
:101F800010B504462046FFF7E2FF10BD2DE9F843E7
:101F900007460D4616469846E549781A8F4223D0E3
:101FA00009DCE448384480B1B0F5806F12D0B0F558
:101FB000006F2DD113E0B0F5806F1AD0B0F5006F2F
:101FC0001CD0B0F5406F23D11DE001210420FEF7A5
:101FD0007BFD21E001210820FEF776FD1CE00121B8
:101FE0001020FEF771FD17E001212020FEF76CFDA7
:101FF00012E001214020FEF767FD0DE00121802065
:10200000FEF762FD08E001210802FEF75DFD03E036
:10201000C9480068BDE8F88300BFB5F5807F33D0BC
:1020200012DC102D2CD008DC012D25D0022D24D05F
:10203000042D23D0082D2FD121E0202D21D0402D9B
:1020400020D0802D28D11EE0B5F5805F20D009DC9E
:10205000B5F5007F19D0B5F5806F17D0B5F5006FD5
:102060001AD114E0B5F5005F13D0B5F5804F11D04B
:10207000B5F5004F10D10EE000BF00BF00BF00BF9C
:1020800000BF00BF00BF00BF00BF00BF00BF00BF58
:1020900000BF00BF00BF02E0A7480068BAE700BF6A
:1020A0001C2E01D0182E03D101210846FEF70CFD8D
:1020B0000820FFF72FFF04460CB90020AAE7A580EF
:1020C00027608DF803608DF80280ADF800506946F6
:1020D0003846FEF73DFA20469CE770B505460E46A9
:1020E0009349681A8D4217D009DC9248284480B180
:1020F000B0F5806F0ED0B0F5006F11D10BE0B0F5E8
:10210000806F0AD0B0F5006F08D0B0F5406F07D1EE
:1021100005E000BF00BF00BF00BF00BF00BF01E07F
:10212000002070BD00BFB6F5807F33D012DC102ECA
:102130002CD008DC012E25D0022E24D0042E23D052
:10214000082E2FD121E0202E21D0402E20D0802E0D
:1021500028D11EE0B6F5805F20D009DCB6F5007FFF
:1021600019D0B6F5806F17D0B6F5006F1AD114E00C
:10217000B6F5005F13D0B6F5804F11D0B6F5004F1D
:1021800010D10EE000BF00BF00BF00BF00BF00BF06
:1021900000BF00BF00BF00BF00BF00BF00BF00BF47
:1021A00000BF02E064480068BBE700BF0820FFF7FB
:1021B000B1FE044614B960480068B2E7A680256005
:1021C0002046AEE7F8B504460D461646584A206844
:1021D000811A904223D009DC5649084480B1B0F5F9
:1021E000806F12D0B0F5006F2DD113E0B1F5806F84
:1021F0001AD0B1F5006F1CD0B1F5406F23D11DE0AE
:1022000001210420FEF760FC1EE001210820FEF7FA
:102210005BFC19E001211020FEF756FC14E00121BF
:102220002020FEF751FC0FE001214020FEF74CFC7E
:102230000AE001218020FEF747FC05E001210802A9
:10224000FEF742FC00E0F8BD00BFA088B0F5807F3B
:1022500033D012DC10282CD008DC012825D002282D
:1022600024D0042823D008282FD121E0202821D0F1
:10227000402820D0802828D11EE0B0F5805F20D0F3
:1022800009DCB0F5007F19D0B0F5806F17D0B0F53C
:10229000006F1AD114E0B0F5005F13D0B0F5804F95
:1022A00011D0B0F5004F10D10EE000BF00BF00BF4D
:1022B00000BF00BF00BF00BF00BF00BF00BF00BF26
:1022C00000BF00BF00BF00BF00E0BCE700BF1C2D87
:1022D00001D0182D03D101210846FEF7F5FB8DF83A
:1022E00003508DF80260A088ADF8000069462068B0
:1022F000FEF72EF900BFA6E770B504460D460DB1F6
:10230000012300E000231A46A1882068FEF7D1F9D6
:1023100070BD10B50446A1882068FEF7ACF910BD69
:1023200010B50446A1882068FEF7B2F910BD000080
:102330000014014000F8FEBF183D000810B5044627
:1023400004B910BDFE4A2068811A90422BD00EDCE1
:10235000C0F3090171BB4FEAA020A0F58010082846
:1023600028D2DFE800F01415161718191E1FC1F344
:102370000900F8B9881243380B281BD2DFE800F0B7
:10238000061A0D1A1A1415160E0F100000BF00BF02
:1023900000BF00BF00BF00BF00BF00BF00BF00BF45
:1023A00000BF00BF00BF00BF00BF00BF2068FEF736
:1023B000EFFB00E0C5E700BF2046FFF7C8FD00BF08
:1023C000BFE72DE9FF5F05460F4690461E46DDE953
:1023D0000F9BDDF838A0DA49681A8D426DD00EDC0B
:1023E000C5F3090000286ED1A812A0F580100828B6
:1023F0007CD2DFE800F01A20262C3238565CC0F37D
:102400000901002972D1801243380B286ED2DFE80F
:1024100000F0066D306D6D5B6167363C4200012156
:10242000C802FEF751FBC74C64E001210846FEF7E5
:1024300058FBC54C5EE001210220FEF752FBC34C65
:1024400058E001210420FEF74CFBC14C52E0012171
:102450000820FEF746FBBF4C4CE001211020FEF7A0
:1024600040FBBD4C46E001212020FEF73AFBBB4C6F
:1024700040E001214803FEF727FBB94C3AE0012177
:10248000C804FEF721FBB74C34E001210805FEF734
:102490001BFBB54C2EE001214805FEF715FBB34CA4
:1024A00000BF01214020FEF71CFBB14C22E00121BE
:1024B0008020FEF716FBAF4C1CE001210802FEF75E
:1024C00010FBAD4C16E011E001210804FEF7FCFA08
:1024D000AA4C0FE001214804FEF7F6FAA84C09E0E7
:1024E00001218804FEF7F0FAA64C03E0002004B0B6
:1024F000BDE8F09F00BF2846FEF74AFB206810B1F8
:102500002068FFF71BFF1020FFF704FD2060206804
:1025100008B90020EBE72068056020688660206825
:10252000C0F80CA0206880F804900020ADF80A00E4
:10253000ADF80600ADF808708DF80C00ADF8048019
:1025400001A92846FEF7F8FB96B18DF8009001200E
:102550008DF803008DF801B011988DF802006846DF
:10256000FDF72DFF012211462846FEF75CFF00BF54
:1025700001212846FEF73CFF2068B8E72DE9FF5F00
:1025800007460C4615461E46DDE90F9ADDF83880F1
:10259000FDF7B6FE7C4800687C49B0FBF1F0604373
:1025A00041F61F41B0FBF1F01FFA80FB2B465A4663
:1025B00038468DE84007FFF704FF04B0BDE8F09F00
:1025C00070B505460E461020FFF7A4FC04462560B2
:1025D0002671204670BD2DE9FF5F05460F469046E7
:1025E0001E46DDE90FABDDF83890554A2868811AA0
:1025F00090426DD00EDCC0F30901002974D1801225
:10260000A0F5801008287CD2DFE800F01A20262CE4
:102610003238565CC1F30900002872D18812433861
:102620000B286ED2DFE800F0066D306D6D5A6167E1
:10263000363C42000121C802FEF746FA414C62E0F6
:1026400001210846FEF74DFA3F4C5CE001210220D3
:10265000FEF747FA3D4C56E001210420FEF741FA0F
:102660003B4C50E001210820FEF73BFA394C4AE090
:1026700001211020FEF735FA374C44E001212020DB
:10268000FEF72FFA354C3EE001214803FEF71CFA15
:10269000334C38E00121C804FEF716FA314C32E021
:1026A00001210805FEF710FA2F4C2CE00121480506
:1026B000FEF70AFA2D4C00BF01214020FEF711FA67
:1026C0002B4C20E001218020FEF70BFA294C1AE068
:1026D00001210802FEF705FA274C14E00121080445
:1026E000FEF7F2F9254C0EE00BE001214804FEF75D
:1026F000EBF9234C07E001218804FEF7E5F9214CB2
:1027000001E0BDE8FF9F00BF2868FEF741FA20689E
:1027100010B12068FFF712FE256028682168086064
:10272000206886602068C0F80C900020ADF80A0090
:10273000ADF80600ADF808708DF80C0028E0000038
:10274000002000403000002034000020380000202D
:102750003C000020400000204400002048000020F1
:102760004C000020500000205400002058000020A1
:102770005C00002060000020640000206800002051
:102780006C000020700000200000002040420F007C
:10279000ADF8048001A92868FEF7CEFA9EB1206842
:1027A00000798DF8000001208DF803008DF801A05C
:1027B0008DF802B06846FDF702FE01221146286836
:1027C000FEF731FE00BF01212868FEF711FE00BFB1
:1027D00097E72DE9FE4F07460C4615461E46DDE9F4
:1027E0000C8AFDF78DFDF7480068F749B0FBF1F062
:1027F000604341F61F41B0FBF1F01FFA80F92B4610
:102800004A4638468DE84005FFF7E5FEBDE8FE8FF5
:1028100001460868808D704701460868008D704742
:1028200002689185704702681185704770B505464A
:102830000C462846FFF7ECFF0646FDF761FDE14830
:102840000068E149B0FBF1F06043711CB0FBF1F0AE
:10285000401E83B219462846FFF7E5FF70BD70B5EC
:1028600005460C462846FFF7D7FF0646FDF748FD0C
:10287000D4480068D449B0FBF1F06043711CB0FB50
:10288000F1F0401E83B219462846FFF7C9FF70BD1C
:1028900070B504462046FFF7BFFF05462046FFF708
:1028A000B7FF0646FDF72CFDC6480068C649B0FBD9
:1028B000F1F2681C711C4843B0FBF2F070BD10B51A
:1028C0000121C248FFF75DF870B10121BF48FFF751
:1028D00069F8BF480068806830B1BD4A1268D068A6
:1028E000BB4A12689168884710BD10B5012188075E
:1028F000FFF747F870B101218807FFF753F8B54893
:102900000068806830B1B34A1268D068B14A126872
:102910009168884710BD10B50121AF48FFF731F825
:1029200070B10121AC48FFF73DF8AC480068806801
:1029300030B1AA4A1268D068A84A126891688847DC
:1029400010BD10B50121A648FFF71BF870B1012199
:10295000A348FFF727F8A3480068806830B1A14A70
:102960001268D0689F4A12689168884710BD10B5F8
:1029700001219D48FFF705F870B101219A48FFF742
:1029800011F89A480068806830B1984A1268D06897
:10299000964A12689168884710BD10B50121944885
:1029A000FEF7EFFF70B101219148FEF7FBFF914860
:1029B0000068806830B18F4A1268D0688D4A12680A
:1029C0009168884710BD10B501218948FEF7D9FFED
:1029D00070B101218648FEF7E5FF864800688068EF
:1029E00030B1844A1268D068824A12689168884778
:1029F00010BD10B501218048FEF7C3FF70B1012161
:102A00007D48FEF7CFFF7D480068806830B17B4A83
:102A10001268D068794A12689168884710BD10B56D
:102A200001217748FEF7ADFF70B101217448FEF730
:102A3000B9FF74480068806830B1724A1268D06883
:102A4000704A12689168884710BD10B501216E4820
:102A5000FEF797FF70B101216B48FEF7A3FF6B48AB
:102A60000068806830B1694A1268D068674A1268A5
:102A70009168884780215548FEF783FF18B180216F
:102A80005248FEF78FFF10BD10B501214F48FEF7E9
:102A900078FF70B101214D48FEF784FF4C48006873
:102AA000806830B14A4A1268D068494A1268916811
:102AB000884701215648FEF764FF70B10121544850
:102AC000FEF770FF53480068806830B1514A1268C1
:102AD000D068504A12689168884710BD10B501212E
:102AE0004D48FEF74EFF70B101214B48FEF75AFFEB
:102AF0004A480068806830B1484A1268D068474A3E
:102B000012689168884720213048FEF73AFF18B1D3
:102B100020212E48FEF746FF40212C48FEF731FFCA
:102B200018B140212948FEF73DFF10BD10B5012125
:102B30003B48FEF726FF70B101213948FEF732FF0E
:102B400038480068806830B1364A1268D068354A23
:102B500012689168884710BD10B501213048FEF712
:102B600010FF70B101212E48FEF71CFF2D480068B0
:102B7000806830B12B4A1268D0682A4A126891687E
:102B8000884780211E48FEF7FCFE18B180211C48B2
:102B9000FEF708FF10BD10B501212348FEF7F1FE36
:102BA00070B101212048FEF7FDFE204800688068D2
:102BB00030B11E4A1268D0681C4A12689168884772
:102BC00010BD00000000002040420F00002C01401A
:102BD00030000020340000200004004038000020B5
:102BE000000800403C000020000C00404000002095
:102BF0000010004044000020001400404800002065
:102C0000003401404C000020004C014050000020E6
:102C100000500140540000200054014058000020A2
:102C2000001800405C000020001C004060000020F4
:102C300010B501216B48FEF7A4FE70B1012169486F
:102C4000FEF7B0FE68480068806830B1664A1268D6
:102C5000D068654A12689168884701216348FEF789
:102C600090FE70B101216148FEF79CFE604800684B
:102C7000806830B15E4A1268D0685D4A1268916817
:102C8000884710BD10B501215A48FEF77AFE70B191
:102C900001215848FEF786FE57480068806830B129
:102CA000554A1268D068544A12689168884710BD26
:102CB00010B501214F48FEF764FE70B101214D4867
:102CC000FEF770FE4C480068806830B14A4A1268CE
:102CD000D068494A12689168884720214148FEF728
:102CE00050FE18B120213F48FEF75CFE40213D48D0
:102CF000FEF747FE18B140213A48FEF753FE10BDDB
:102D000010B501213D48FEF73CFE70B101213B4862
:102D1000FEF748FE3A480068806830B1384A1268C9
:102D2000D068374A12689168884780213548FEF795
:102D300028FE18B180213348FEF734FE10BD10B5CF
:102D400001213048FEF71DFE70B101212D48FEF72C
:102D500029FE2D480068806830B12B4A1268D0687F
:102D6000294A12689168884701212848FEF709FE20
:102D700070B101212548FEF715FE254800688068DE
:102D800030B1234A1268D068214A12689168884796
:102D900010BD10B501211F48FEF7F3FD70B10121F0
:102DA0001C48FEF7FFFD1C480068806830B11A4AD5
:102DB0001268D068184A1268916888472021114823
:102DC000FEF7DFFD18B120210E48FEF7EBFD402194
:102DD0000C48FEF7D6FD18B140210A48FEF7E2FD87
:102DE00010BD0000003401404C000020001C0040D9
:102DF00060000020002000406400002000400140EE
:102E000068000020002C01403000002000440140F8
:102E10006C00002000480140700000200146D1E90C
:102E20000302904203D1D1E90702904201D0012070
:102E300070470020FCE700B503461846FFF7EEFF99
:102E400000B900BD012083F8240000BF93F82400DE
:102E5000012804D11846FFF7E1FF0028F6D1002031
:102E600083F8240000BFECE770B504460025204637
:102E7000FFF7D4FF90B1E169E068455CE069401C70
:102E8000E061E069202809D1E668E068006AE06056
:102E90000020E061304600F04EFC00BF284670BDC7
:102EA00070B504462046FFF7B9FF38B12046FFF75A
:102EB000DBFF054629462068FEF7B4FE70BD10B55D
:102EC00004462046FFF7AAFF00B910BD2046FFF7D1
:102ED000E7FF00BFF9E770B504460E46A169A06898
:102EE0004654A069401CA061A069202823D101207C
:102EF00084F83500242000F0EFFBA1680862A06888
:102F0000006A18B9002084F8350070BDA068006A16
:102F1000A0600020A061002506E004F12500415DCD
:102F20002046FFF7D8FF6D1CA06BA842F5D8002003
:102F3000A06384F8350000BFE7E770B5044694F855
:102F4000350078B1A06B10280BD22068FEF76EFE1A
:102F5000C1B204F12500A26B8154A06B401CA06398
:102F600008E070BD2068FEF761FEC5B22946204624
:102F7000FFF7B1FF00BFF4E70146D1E9010290423B
:102F800003D1D1E90502904201D001207047002011
:102F9000FCE770B5044600252046FFF7EDFF90B131
:102FA00061696068455C6069401C606160692028F7
:102FB00009D166686068006A606000206061304620
:102FC00000F0B9FB00BF284670BD2DE9F041044672
:102FD0000F4616462046FFF72EFF00251CE0785DC1
:102FE000226A21698854206A401C2062206A2028B5
:102FF00011D1242000F070FB216908622069006A69
:1030000020B92046FFF75BFFBDE8F0812069006A28
:103010002061002020626D1CB542E0D32046FFF7FE
:103020004EFF00BFF0E713B50446012201A9204678
:10303000FFF7CBFF1CBD10B504462046FFF7A9FFE4
:1030400010BD00B503461846FFF796FF00BD70B5EA
:1030500005460C46204600F095FB064632462146C2
:103060002846FFF7B2FF70BD2DE9F04F87B0054647
:103070000E4617469846DDE911ABDDF84090019603
:103080000020ADF810000C20ADF80E00ADF80C805B
:10309000ADF80A90ADF8087003208DF81A001820DA
:1030A0008DF81B0003208DF8160004208DF8170002
:1030B00001208DF803008DF801A08DF802B0724850
:1030C000284408B3B0F5806F39D0B0F5744F52D1B1
:1030D00001218803FDF7F8FC01210420FDF7F4FC31
:1030E0004FF40070ADF818004000ADF81400252032
:1030F0008DF80000654C06A96548FDF729FA05A979
:103100006348FDF725FA3AE001214804FDF7E9FCA0
:1031100001210420FDF7D8FC0420ADF81800082098
:10312000ADF8140026208DF800005A4C06A9584826
:10313000FDF70EFA05A95648FDF70AFA1FE001212E
:103140008804FDF7CEFC01210820FDF7BDFC4FF4FB
:103150008060ADF818004000ADF8140027208DF80D
:1031600000004D4C06A94D48FDF7F2F905A94B4862
:10317000FDF7EEF903E0002007B0BDE8F08F00BFD7
:103180003C20FEF7C7FE2060206805600020216813
:1031900081F8350021688863216881F8240021685E
:1031A000886121684861242000F096FA21688860CF
:1031B000216848600020216808622168C8612420D5
:1031C00000F08AFA216808612168C8600121084678
:1031D000FDF77AFC6846FDF7F2F82168086801A956
:1031E000FEF727FC21680122086840F22661FEF7FD
:1031F000B8FC21680122086840F22551FEF7B1FCB5
:10320000216808680121FEF7A0FC2068B4E710B52A
:10321000044640F225512068FEF788FD012807D1B9
:1032200040F225512068FEF7ABFD2046FFF785FEF2
:1032300040F226612068FEF779FD01280FD140F2A7
:1032400026612068FEF79CFD94F82400012803D134
:10325000002084F8240010BD2046FFF721FE00BFA7
:10326000F9E710B509480068FFF7D1FF10BD10B5A8
:1032700008480068FFF7CBFF10BD10B5064800688E
:10328000FFF7C5FF10BD000000BCFFBF74000020A9
:1032900000080140780000207C000020000C014064
:1032A0002DE9F84F80460D4616461F46DDE90A9A7D
:1032B000032210214046FEF785FF032210212846F5
:1032C000FEF780FF032210213046FEF77BFF03222A
:1032D00010213846FEF776FF4420FEF71BFE044619
:1032E00014B90020BDE8F88F4FF08041484600F047
:1032F00065FBF749009000F043FC834600F020FC9A
:103300006061C4F818A0F34800682060C4F8048025
:10331000A560E66027612046E4E710B50446206A10
:10332000082815D2DFE800F00415263748596A7BD3
:1033300001216068FEF7E0FF0021E068FEF7DCFF96
:103340000021A068FEF7D8FF00212069FEF7D4FF16
:1033500076E001216068FEF7CFFF0121E068FEF70B
:10336000CBFF0021A068FEF7C7FF00212069FEF710
:10337000C3FF65E000216068FEF7BEFF0121E06841
:10338000FEF7BAFF0021A068FEF7B6FF0021206912
:10339000FEF7B2FF54E000216068FEF7ADFF0121A7
:1033A000E068FEF7A9FF0121A068FEF7A5FF002154
:1033B0002069FEF7A1FF43E000216068FEF79CFF53
:1033C0000021E068FEF798FF0121A068FEF794FF56
:1033D00000212069FEF790FF32E000216068FEF7CF
:1033E0008BFF0021E068FEF787FF0121A068FEF750
:1033F00083FF01212069FEF77FFF21E00021606843
:10340000FEF77AFF0021E068FEF776FF0021A06852
:10341000FEF772FF01212069FEF76EFF10E0012127
:103420006068FEF769FF0021E068FEF765FF002194
:10343000A068FEF761FF01212069FEF75DFF00BF74
:1034400000BF022084F8400010BD70B505466C68CE
:10345000C1E094F8400001287DD1206A08287BD281
:10346000DFE800F00415263748596A7E01216068BC
:10347000FEF742FF0021E068FEF73EFF0021A06852
:10348000FEF73AFF00212069FEF736FF7CE00121BC
:103490006068FEF731FF0121E068FEF72DFF002193
:1034A000A068FEF729FF00212069FEF725FF6BE0E9
:1034B00000216068FEF720FF0121E068FEF71CFF95
:1034C0000021A068FEF718FF00212069FEF714FF15
:1034D0005AE000216068FEF70FFF0121E068FEF767
:1034E0000BFF0121A068FEF707FF00212069FEF70E
:1034F00003FF49E000216068FEF7FEFE0021E0685E
:10350000FEF7FAFE0121A068FEF7F6FE0021206911
:10351000FEF7F2FE38E000216068FEF7EDFE0021C4
:10352000E068FEF7E9FE0121A068FEF7E5FE012153
:103530002069FEF7E1FE27E000216068FEF7DCFE6F
:103540000021E068FEF7D8FE0021A068FEF7D4FE57
:103550000121206901E03DE013E0FEF7CDFE13E01C
:1035600001216068FEF7C8FE0021E068FEF7C4FE96
:103570000021A068FEF7C0FE01212069FEF7BCFE15
:1035800002E00020206200BF00BF207F40B9206A17
:10359000401C2062206A08280DD1002020620AE029
:1035A000207F012807D1206A401E2062206A401C2B
:1035B00008B907202062A06A401CA062D4E9091063
:1035C000884207D12046FFF7A8FEA06B10B1D4E9CE
:1035D0000E1088472468002C7FF43BAF70BD7CB58B
:1035E00005460820FEF796FC04460020009023467E
:1035F000AFF2A91242F2107101902846FFF7E9F8E4
:1036000034480068606020467CBD10B5314B1B68B3
:103610000B60304C43682468A34201D1416010BD67
:10362000426800E012682B4C13682468A342F9D169
:10363000116000BFF3E7426200238362012380F838
:10364000403070472DE9F04104460E4615462049AA
:10365000284600F095FA804600F072FA6169B0FBE6
:10366000F1F73A4631462046FFF7E5FFBDE8F08125
:103670002DE9F04104460E4615461549284600F04E
:103680007FFA804600F05CFA4FF4B47100FB01F75A
:103690006069B7FBF0F8424631462046FFF7CBFFA2
:1036A000BDE8F08110B5044600216068FEF724FEF5
:1036B0000021E068FEF720FE0021A068FEF71CFE56
:1036C00000212069FEF718FE002084F8400010BD9C
:1036D0000000C842183D000870B5064600F074F8B6
:1036E000056806F10B0020F00704B4429CBF0020DF
:1036F00070BD2B466A68BAB11068A04210D304F1BD
:10370000080188423CBF5068586007D351681019BF
:1037100041601168091B016058601460101D70BD84
:1037200013465268002AE7D12146284600F054F893
:103730000028DED170BD70B50446051F00F044F8C6
:103740000068002C14BF446870BD002C18BFAC4248
:103750003CBF20466468F8D301680A18AA4218BF23
:10376000456003D12A680546114401602868411963
:10377000A1421CBF6C6070BD61686960216808442B
:10378000286070BD10B5431C02E010F8011B71B138
:103790008107FAD14FF0013202C88C1A8C4314EA27
:1037A000C211F9D0C01A0A0603D0C01E10BDC01A3B
:1037B00010BD0A0401D0801E10BD0902FCD0401EBD
:1037C00010BD704770477047004870478820002040
:1037D000704770477047704738B504460A46002066
:1037E0006946AFF30080002808BF38BD0246009943
:1037F000204600F03FF8012038BD012000F054B809
:10380000F8B5AFF30080054600200C46102000BF3D
:103810000646A819A0420DD9324669460020AFF3EA
:103820000080070008BF00F03FF80098A04218BFD2
:103830000546C419FFF7C8FF05600746F01D20F0D4
:1038400007004619284600F00AF8B44208BFF8BD40
:10385000A21B31463868BDE8F84000F00BB80021E3
:103860000160C0E9011070471020704700487047A0
:1038700080200020034640688C46002818BF8842FC
:103880003CBF03464068F8D318681844884207D004
:103890000CF1030020F00700001D411A521A0146E6
:1038A000081D0A60FFF747BF10B500F039F8BDE802
:1038B000104000F02FB870477546FFF7D7FFAE46AF
:1038C00005006946534620F00700854618B020B52C
:1038D000FEF77EFABDE820404FF000064FF00007EB
:1038E0004FF000084FF0000B21F00701AC46ACE8A8
:1038F000C009ACE8C009ACE8C009ACE8C0098D4615
:10390000704710B50446AFF300802046BDE8104074
:10391000FCF759BC002801D000F02AB8704700001D
:1039200010B5012805D0002103A000F027F80120E0
:1039300010BD09A1F8E7000053494752544D454DC9
:103940003A204F7574206F662068656170206D6540
:103950006D6F7279000000003A2048656170206D3B
:10396000656D6F727920636F727275707465640033
:1039700001491820ABBEFEE72600020070B50546DF
:103980000C460A2000E06D1C00F011F835B12878D3
:103990000028F8D102E0641C00F009F814B1207886
:1039A0000028F8D1BDE870400A20AFF3008008B5C8
:1039B00069468DF800000320ABBE08BD4FF47F0CB4
:1039C0001CEAD0121EBF1CEAD11392EA0C0F93EA34
:1039D0000C0F00F0858090EA010F48BF42F480721E
:1039E00040F4000C41F400002CF07F4120F07F40B7
:1039F00000B58142A2EB03020FF2081CACEB504E63
:103A0000C0F100009EF800E04FEA4E0E00FB0EFCF5
:103A100038BF49004FEA2C1C02F5FA020CFB0EF3EA
:103A20004FEACE1E4FEA112C4FEAC1210EEB635E26
:103A300042EB22420EFB0CFC4FEA1C5300FB03112D
:103A40004FEA112C4FEA01310EFB0CFC4FEADC4C23
:103A500000FB0C11C14228BF09184CEB03335DF881
:103A600004EB10EB410143EBC250B2F57C0F38BFC1
:103A7000704729D512F0F00F1CBF00F1C04000F0D4
:103A800000407047008182838485868788898B8C7B
:103A90008D8E8F919293959697999A9C9D9FA0A2B7
:103AA000A3A5A7A8AAACAEB0B2B3B5B7B9BCBEC007
:103AB000C2C5C7C9CCCED1D4D7D9DCDFE2E6E9ECA8
:103AC000F0F3F7FAFE0000004FEA400C0CF1807CA6
:103AD000BCF17E4F28BF7047B0F1C04000F017B96D
:103AE00090EA010F0CEAD11348BF42F4807262459C
:103AF00038BF634507D213F47F0F16D080EA010068
:103B000000F00040704710B500F0BBF8097EFC3EA5
:103B100000F005B880EA010000F00040704780EA3C
:103B2000010000F0004000F0F2B812F47F0F04BF73
:103B30000248704780EA010000F0E9B80000C07F49
:103B4000C10DD1F19E0206DB4FEA002343F0004392
:103B500023FA02F07047004207D54FEA4001B1F165
:103B6000FE4F02D24FF00000704710B500F089F808
:103B700049922480002070476FEA200070470000BF
:103B80004FF47F0C1CEAD0121EBF1CEAD11392EA3C
:103B90000C0F93EA0C0F00F0478090EA010F48BF2A
:103BA00042F480724FF0004C4CEA00204CEA0121B4
:103BB00002EB0302A0FB0113A2F50002002918BFCB
:103BC00043F001035B0028BF4FEA330342EB22427C
:103BD0005FEA132C4CEBC2502EBFBCEB436FB2F527
:103BE0007C0F70474FEA036CBCF1004F08BF20F018
:103BF0000100B2F57C0F38BF70470BD582F0FF0291
:103C000012F5803FC8BF704700F1C040D8BF00F038
:103C10000040704700F5000C5FEA4C0C48BF70474D
:103C2000B0F1C04000F073B890EA010F0CEAD11374
:103C300048BF42F48072624538BF634504D280EACF
:103C4000010000F00040704710B500F01AF800BF06
:103C50008900013E00F007B800F009B85FEA410CA6
:103C60005FEA1C6C08D080EA010000F050B85FEAFF
:103C7000400C5FEA1C6CF6D14FF00040A0F58000CC
:103C800070470EF1020E2EF0030E5EF8044B244234
:103C900004D44FEA4102B2F17F4F11D84FEA4003FA
:103CA000B3F17F4F0CD80ED14FEAD07CB2F17F4FE9
:103CB0000CEB4C0C0CF1020C08BF4CEBD17C04E07B
:103CC0004FF0080C01E04FEAD17C0CEB4C0324FAD6
:103CD00003F404F00704B4F1040C06D20EEB840CD8
:103CE000BDE810404CF0010C6047DFE80CF007081D
:103CF00002024FF00040A0F5800010BD08464200CF
:103D000018BFD2F1807288BF00F0004010BDFF21C3
:103D100041EAD050C0057047000000003C3D00085B
:103D200000000020800000006C010008BC3D00087D
:103D300080000020602600008801000800A24A04DC
:103D4000000000000000000001020304060708094B
:103D50000000000001020304010203040607080931
:103D6000020406080000000000000000000000003F
:103D70000000000000000000000000000000000043
:103D80000000000000000000000000000000000033
:103D90000000000000000000000000000000000023
:103DA0000000000000000000000000000000000013
:0C3DB00000000000000000000000000007
:0400000508000131BD
:00000001FF
